:100000000C9456000C9475000C9475000C947500BB
:100010000C9475000C9475000C9475000C9475008C
:100020000C9475000C9475000C9475000C9475007C
:100030000C9475000C94A4020C9475000C9475003B
:100040000C9475000C9475000C9475000C9475005C
:100050000C9475000C9475000C9475000C9475004C
:100060000C9475000C9475000C9475000C9475003C
:100070000C9475000C9475000C9475000C9475002C
:100080000C9475000C9475000C94750044034E0399
:10009000630381039F03BD03DB03F0031104160414
:1000A0001C04220428042E0434043A0411241FBE24
:1000B000CFEFD0E4DEBFCDBF11E0A0E0B1E0EEE9CC
:1000C000FCE000E00BBF02C007900D92A231B10727
:1000D000D9F721E0A2E1B1E001C01D92A033B2073F
:1000E000E1F70E949A040C944D060C940000CF9303
:1000F000DF9300D01F92CDB7DEB789837B836A83FD
:1001000089818A3031F48A819B81BC018DE00E9413
:10011000770080EC90E0FC018081882F90E0807275
:100120009927892BB1F386EC90E02981FC0120838B
:1001300080E090E00F900F900F90DF91CF910895A5
:10014000CF93DF9300D01F92CDB7DEB789836A8348
:100150004B838B81882371F08A81282F30E081E0E6
:1001600090E002C0880F991F2A95E2F7982F8981A5
:10017000892B0EC08A81282F30E081E090E002C0F8
:10018000880F991F2A95E2F7982F909589818923E6
:100190000F900F900F90DF91CF910895CF93DF9341
:1001A00000D0CDB7DEB789836A838A81282F30E0FB
:1001B00081E090E002C0880F991F2A95E2F7982FFE
:1001C000898189230F900F90DF91CF9108950F932C
:1001D0001F93CF93DF93CDB7DEB708E210E040E086
:1001E00064E08FEF0E94A000F8018083000086E2A7
:1001F00090E0FC018081809560E00E94CE00882321
:1002000011F081E3D3C086E290E0FC01808180950B
:1002100061E00E94CE00882311F084E3C7C086E22B
:1002200090E0FC018081809562E00E94CE008823EE
:1002300011F087E3BBC086E290E0FC0180818095ED
:1002400063E00E94CE00882311F08AE2AFC008E28A
:1002500010E040E065E08FEF0E94A000F80180838D
:10026000000086E290E0FC018081809560E00E94C1
:10027000CE00882311F082E399C086E290E0FC0171
:100280008081809561E00E94CE00882311F085E393
:100290008DC086E290E0FC018081809562E00E9442
:1002A000CE00882311F088E381C086E290E0FC0153
:1002B0008081809563E00E94CE00882311F080E366
:1002C00075C008E210E040E066E08FEF0E94A000F9
:1002D000F8018083000086E290E0FC018081809537
:1002E00060E00E94CE00882311F083E35FC086E2C5
:1002F00090E0FC018081809561E00E94CE0088231F
:1003000011F086E353C086E290E0FC018081809585
:1003100062E00E94CE00882311F089E347C086E2A4
:1003200090E0FC018081809563E00E94CE008823EC
:1003300011F083E23BC008E210E040E067E08FEF9D
:100340000E94A000F8018083000086E290E0FC019A
:100350008081809560E00E94CE00882311F081E4C6
:1003600025C086E290E0FC018081809561E00E94DA
:10037000CE00882311F082E419C086E290E0FC01EF
:100380008081809562E00E94CE00882311F083E492
:100390000DC086E290E0FC018081809563E00E94C0
:1003A000CE00882311F084E401C080E0DF91CF917A
:1003B0001F910F910895CF93DF93CDB7DEB72C97A0
:1003C0000FB6F894DEBF0FBECDBF6D837E838F83E3
:1003D000988729873A874B875C878D819E81AF817B
:1003E000B88529853A854B855C85BC01CD010E9485
:1003F0002206DC01CB0189839A83AB83BC8389818C
:100400009A81AB81BC81892B8A2B8B2B29F489851E
:100410009A85AB85BC8511C089859A85AB85BC85DD
:100420008D839E83AF83B88789819A81AB81BC819C
:1004300089879A87AB87BC87D0CFBC01CD012C962A
:100440000FB6F894DEBF0FBECDBFDF91CF910895F8
:10045000CF93DF9300D000D0CDB7DEB769837A8326
:100460008B839C8389819A81AB81BC8180930E01AF
:1004700090930F01A0931001B093110180910E0190
:1004800090910F01A0911001B0911101809313017F
:1004900090931401A0931501B093160100000F90E2
:1004A0000F900F900F90DF91CF910895CF93DF932E
:1004B000CDB7DEB781E890E02BE0FC01208388E82F
:1004C00090E02DE730E0FC01318320838FE690E05F
:1004D00022E0FC01208384E890E0FC01118210827C
:1004E00080910E0190910F01A0911001B091110126
:1004F0008093130190931401A0931501B0931601FA
:100500008FE590E02FE530E0F90120812068FC01C3
:1005100020830000DF91CF910895CF93DF93CDB773
:10052000DEB781E890E0FC0110820000DF91CF91FE
:100530000895CF93DF93CDB7DEB781E080931201AA
:100540000000DF91CF9108951F920F9200905F00FD
:100550000F92112400905B000F922F933F934F93C3
:100560005F936F937F938F939F93AF93BF93EF931B
:10057000FF93CF93DF93CDB7DEB7809113019091B6
:100580001401A0911501B09116010197A109B109BB
:100590008093130190931401A0931501B093160159
:1005A0008091130190911401A0911501B091160151
:1005B000892B8A2B8B2B91F40E94990280910E013A
:1005C00090910F01A0911001B0911101809313013E
:1005D00090931401A0931501B09316010000DF91D0
:1005E000CF91FF91EF91BF91AF919F918F917F91AB
:1005F0006F915F914F913F912F910F9000925B000F
:100600000F9000925F000F901F901895CF93DF938B
:1006100000D0CDB7DEB79A83898389819A81892BEF
:1006200019F41A82198203C01A8219820000898182
:100630009A81892B09F005C00E94E7008093180178
:10064000000089819A810F900F90DF91CF910895DA
:10065000CF93DF9300D0CDB7DEB79A8389838981AA
:100660009A81092E000CAA0BBB0B40E050E027E05A
:1006700030E0841B950B2817390708F4B8C08A5B53
:100680009F4FFC010C94440680911801833209F0BD
:10069000B1C081E090E09A838983ACC08091180159
:1006A000813329F482E090E09A838983A6C0809107
:1006B0001801882329F481E090E09A8389839DC002
:1006C0001A8219829AC080911801823329F483E03A
:1006D00090E09A83898391C080911801833229F434
:1006E00081E090E09A83898388C0809118018823F3
:1006F00029F482E090E09A8389837FC01A8219826C
:100700007CC080911801833329F484E090E09A83BF
:10071000898373C080911801833229F481E090E0CD
:100720009A8389836AC080911801882329F483E021
:1007300090E09A83898361C01A8219825EC0809199
:100740001801843329F485E090E09A83898355C0A9
:1007500080911801833229F481E090E09A838983A3
:100760004CC080911801882329F484E090E09A839A
:10077000898343C01A82198240C080911801853351
:1007800029F486E090E09A83898337C0809118012C
:10079000833229F481E090E09A8389832EC080918E
:1007A0001801882329F485E090E09A83898325C085
:1007B0001A82198222C080911801833229F481E0C3
:1007C00090E09A83898319C080911801882329F4C5
:1007D00087E090E09A83898310C01A8219820DC045
:1007E00080912F01803841F41A82198205C01A8243
:1007F000198203C0000001C0000089819A81092E7E
:10080000000CAA0BBB0B40E050E027E030E0841B5B
:10081000950B2817390798F1825B9F4FFC010C94C8
:10082000440685E290E0FC0110822AC085E290E057
:1008300020E8FC01208324C085E290E020ECFC014C
:1008400020831EC085E290E020EEFC01208318C0CA
:1008500085E290E020EFFC01208312C085E290E069
:1008600028EFFC0120830CC085E290E02CEFFC0116
:10087000208306C085E290E02EEFFC01208300007B
:1008800089819A810F900F90DF91CF9108952F92D7
:100890003F92CF93DF93CDB7DEB72E970FB6F89484
:1008A000DEBF0FBECDBF6D837E838F839887298780
:1008B0003A874B875C873E862D868D819E81AF81EE
:1008C000B88529853A854B855C85BC01CD010E94A0
:1008D0002206DC01CB0189839A83AB83BC838981A7
:1008E0009A81AB81BC81892B8A2B8B2B29F489853A
:1008F0009A85AB85BC8511C089859A85AB85BC85F9
:100900008D839E83AF83B88789819A81AB81BC81B7
:1009100089879A87AB87BC87D0CFBC01CD012E9643
:100920000FB6F894DEBF0FBECDBFDF91CF913F90E1
:100930002F9008952F923F920F931F93CF93DF93A1
:10094000CDB7DEB72D970FB6F894DEBF0FBECDBF83
:1009500081E290E0FC01108282E290E02FEFFC0146
:10096000208384E290E02FEFFC01208385E290E079
:10097000FC01108287E290E020EFFC01208388E2F6
:1009800090E02FE0FC01208310922F0189E191E09B
:100990009B878A8784E291E09D878C8782E090E044
:1009A00098878F838FEF898789858093190182E3E8
:1009B00090E0A0E0B0E080931A0190931B01A09317
:1009C0001C01B0931D0180911A0190911B01A0910F
:1009D0001C01B0911D0180931E0190931F01A093F3
:1009E0002001B093210186E093E09093230180934E
:1009F000220189858093240182E390E0A0E0B0E0A9
:100A00008093250190932601A0932701B09328019C
:100A10008091250190912601A0912701B091280194
:100A20008093290190932A01A0932B01B0932C016C
:100A300088E293E090932E0180932D018A859B8517
:100A4000FC0181819281A381B4818B839C83AD83DE
:100A5000BE8381E090E09A83898329C089819A814D
:100A6000880F991F9E012F5F3F4F820F931F09969A
:100A7000FC0180819181FC0121813281438154817B
:100A80008B819C81AD81BE81BE01665F7F4F1B0162
:100A9000BC01CD010E944704DC01CB018B839C8308
:100AA000AD83BE8389819A8101969A838983298146
:100AB0003A818F8198852817390780F28B819C8134
:100AC000AD81BE81BC01CD010E9428020E94560268
:100AD00080E290E0FC018081809580932F011A8252
:100AE0001982A0C089819A81880F991F9E012F5F6A
:100AF0003F4F820F931F0996FC0180819181FC0179
:100B0000258136814781508589819A81880F991F77
:100B1000BE016F5F7F4F860F971F0996FC01808192
:100B20009181FC0181819281A381B48128173907C9
:100B30004A075B0709F045C089819A81880F991F90
:100B40009E012F5F3F4F820F931F0996FC0100818A
:100B5000118189819A81880F991F9E012F5F3F4FD4
:100B6000820F931F0996FC0180819181FC012185F0
:100B7000328589819A81880F991FAE014F5F5F4F3F
:100B8000840F951F0996FC0180819181FC01808171
:100B9000082E000C990BF9010995F80180838981D1
:100BA0009A81880F991F9E012F5F3F4F820F931FDD
:100BB0000996FC0180819181FC01158216821782C1
:100BC000108689819A81880F991F9E012F5F3F4F60
:100BD000820F931F0996FC016081718189819A813E
:100BE000880F991F9E012F5F3F4F820F931F099619
:100BF000FC0180819181FC012581368147815085EE
:100C00008B819C81AD81BE81820F931FA41FB51F74
:100C1000FB0185839683A783B08789819A8101969A
:100C20009A83898329813A818F819885281739078A
:100C300008F458CF0000809112018823E1F310924C
:100C4000120146CFA1E21A2EAA1BBB1BFD010DC04B
:100C5000AA1FBB1FEE1FFF1FA217B307E407F5076C
:100C600020F0A21BB30BE40BF50B661F771F881F48
:100C7000991F1A9469F760957095809590959B01DE
:100C8000AC01BD01CF010895EE0FFF1F0024001C31
:0E0C90000BBE0790F691E02D0994F894FFCF6B
:100C9E0000000002000000007700000000000100CC
:020CAE00000044
:00000001FF
