:100000000C9456000C9475000C9475000C947500BB
:100010000C9475000C9475000C9475000C9475008C
:100020000C9475000C9475000C9475000C9475007C
:100030000C9475000C94A4020C9475000C9475003B
:100040000C9475000C9475000C9475000C9475005C
:100050000C9475000C9475000C9475000C9475004C
:100060000C9475000C9475000C9475000C9475003C
:100070000C9475000C9475000C9475000C9475002C
:100080000C9475000C9475000C9475000B04150409
:100090002A04480466048404A204B704DC04E304CC
:1000A000EB04F104F704FD040305090511241FBE48
:1000B000CFEFD0E4DEBFCDBF11E0A0E0B1E0E4E2DD
:1000C000F3E100E00BBF02C007900D92AA31B10727
:1000D000D9F721E0AAE1B1E001C01D92A834B2072E
:1000E000E1F70E9418060C9490090C940000CF933D
:1000F000DF9300D01F92CDB7DEB789837B836A83FD
:1001000089818A3031F48A819B81BC018DE00E9413
:10011000770080EC90E0FC018081882F90E0807275
:100120009927892BB1F386EC90E02981FC0120838B
:1001300080E090E00F900F900F90DF91CF910895A5
:10014000CF93DF9300D01F92CDB7DEB789836A8348
:100150004B838B81882371F08A81282F30E081E0E6
:1001600090E002C0880F991F2A95E2F7982F8981A5
:10017000892B0EC08A81282F30E081E090E002C0F8
:10018000880F991F2A95E2F7982F909589818923E6
:100190000F900F900F90DF91CF910895CF93DF9341
:1001A00000D0CDB7DEB789836A838A81282F30E0FB
:1001B00081E090E002C0880F991F2A95E2F7982FFE
:1001C000898189230F900F90DF91CF9108950F932C
:1001D0001F93CF93DF93CDB7DEB708E210E040E086
:1001E00064E08FEF0E94A000F8018083000086E2A7
:1001F00090E0FC018081809560E00E94CE00882321
:1002000011F081E3D3C086E290E0FC01808180950B
:1002100061E00E94CE00882311F084E3C7C086E22B
:1002200090E0FC018081809562E00E94CE008823EE
:1002300011F087E3BBC086E290E0FC0180818095ED
:1002400063E00E94CE00882311F08AE2AFC008E28A
:1002500010E040E065E08FEF0E94A000F80180838D
:10026000000086E290E0FC018081809560E00E94C1
:10027000CE00882311F082E399C086E290E0FC0171
:100280008081809561E00E94CE00882311F085E393
:100290008DC086E290E0FC018081809562E00E9442
:1002A000CE00882311F088E381C086E290E0FC0153
:1002B0008081809563E00E94CE00882311F080E366
:1002C00075C008E210E040E066E08FEF0E94A000F9
:1002D000F8018083000086E290E0FC018081809537
:1002E00060E00E94CE00882311F083E35FC086E2C5
:1002F00090E0FC018081809561E00E94CE0088231F
:1003000011F086E353C086E290E0FC018081809585
:1003100062E00E94CE00882311F089E347C086E2A4
:1003200090E0FC018081809563E00E94CE008823EC
:1003300011F083E23BC008E210E040E067E08FEF9D
:100340000E94A000F8018083000086E290E0FC019A
:100350008081809560E00E94CE00882311F081E4C6
:1003600025C086E290E0FC018081809561E00E94DA
:10037000CE00882311F082E419C086E290E0FC01EF
:100380008081809562E00E94CE00882311F083E492
:100390000DC086E290E0FC018081809563E00E94C0
:1003A000CE00882311F084E401C080E0DF91CF917A
:1003B0001F910F910895CF93DF93CDB7DEB72C97A0
:1003C0000FB6F894DEBF0FBECDBF6D837E838F83E3
:1003D000988729873A874B875C878D819E81AF817B
:1003E000B88529853A854B855C85BC01CD010E9485
:1003F000D107DC01CB0189839A83AB83BC838981DC
:100400009A81AB81BC81892B8A2B8B2B29F489851E
:100410009A85AB85BC8511C089859A85AB85BC85DD
:100420008D839E83AF83B88789819A81AB81BC819C
:1004300089879A87AB87BC87D0CFBC01CD012C962A
:100440000FB6F894DEBF0FBECDBFDF91CF910895F8
:10045000CF93DF9300D000D0CDB7DEB769837A8326
:100460008B839C8389819A81AB81BC8180930E01AF
:1004700090930F01A0931001B093110180910E0190
:1004800090910F01A0911001B091110180931B0177
:1004900090931C01A0931D01B0931E0100000F90CA
:1004A0000F900F900F90DF91CF910895CF93DF932E
:1004B000CDB7DEB781E890E02BE0FC01208388E82F
:1004C00090E02DE730E0FC01318320838FE690E05F
:1004D00022E0FC01208384E890E0FC01118210827C
:1004E00080910E0190910F01A0911001B091110126
:1004F00080931B0190931C01A0931D01B0931E01DA
:100500008FE590E02FE530E0F90120812068FC01C3
:1005100020830000DF91CF910895CF93DF93CDB773
:10052000DEB781E890E0FC0110820000DF91CF91FE
:100530000895CF93DF93CDB7DEB781E080931A01A2
:100540000000DF91CF9108951F920F9200905F00FD
:100550000F92112400905B000F922F933F934F93C3
:100560005F936F937F938F939F93AF93BF93EF931B
:10057000FF93CF93DF93CDB7DEB780911B019091AE
:100580001C01A0911D01B0911E010197A109B109A3
:1005900080931B0190931C01A0931D01B0931E0139
:1005A00080911B0190911C01A0911D01B0911E0131
:1005B000892B8A2B8B2B91F40E94990280910E013A
:1005C00090910F01A0911001B091110180931B0136
:1005D00090931C01A0931D01B0931E010000DF91B8
:1005E000CF91FF91EF91BF91AF919F918F917F91AB
:1005F0006F915F914F913F912F910F9000925B000F
:100600000F9000925F000F901F9018950F931F930B
:10061000CF93DF9300D000D0CDB7DEB769837A8364
:100620008B839C838091210190912201A0912301D1
:10063000B09124019C01AD0169817A818B819C81FB
:100640000E94FC07882309F477C020E030E0A9016C
:1006500069817A818B819C810E94FC07882351F4F7
:1006600081E990E021E930E0F90120812870FC0166
:10067000208309C081E990E021E930E0F90120817F
:100680002360FC01208328E539E344E75FE36981C7
:100690007A818B819C810E94FC07882344F488E93D
:1006A00090E02FEF3FEFFC013183208334C020E046
:1006B00034E244EF56E469817A818B819C810E9407
:1006C0001E09181634F488E990E0FC0111821082AA
:1006D00022C008E910E020E030E040E053E4698106
:1006E0007A818B819C810E942309DC01CB019C01D2
:1006F000AD0160E074E284EF9AE40E940108DC013D
:10070000CB01BC01CD010E947308DC01CB01019734
:10071000F8019183808384E990E0FC0111821082CA
:1007200089819A81AB81BC818093210190932201C0
:10073000A0932301B093240100000F900F900F901D
:100740000F90DF91CF911F910F910895CF93DF9379
:10075000CDB7DEB780E990E020E4FC01208381E999
:1007600090E02BE0FC01208360E070E0CB010E9470
:1007700006030000DF91CF910895CF93DF93CDB7AB
:10078000DEB780E990E0FC01108281E990E0FC0195
:1007900010820000DF91CF910895CF93DF9300D0B6
:1007A000CDB7DEB79A83898389819A81892B19F421
:1007B0001A82198203C01A821982000089819A81E3
:1007C000892B09F005C00E94E700809320010000FA
:1007D00089819A810F900F90DF91CF910895CF93E7
:1007E000DF9300D0CDB7DEB79A83898389819A8160
:1007F000092E000CAA0BBB0B40E050E027E030E0D4
:10080000841B950B2817390708F4BCC08A5B9F4FDF
:10081000FC010C94F30780912001833209F0B5C0EC
:1008200081E090E09A838983B0C080912001813378
:1008300029F482E090E09A838983AAC08091200104
:10084000882329F481E090E09A838983A1C01A82E9
:1008500019829EC080912001823329F483E090E0C8
:100860009A83898395C080912001833229F481E0A5
:1008700090E09A8389838CC080912001882329F499
:1008800082E090E09A83898383C01A82198280C0B3
:1008900080912001833329F484E090E09A83898356
:1008A00077C080912001833229F481E090E09A831F
:1008B00089836EC080912001882329F483E090E031
:1008C0009A83898365C01A82198262C0809120014F
:1008D000843329F485E090E09A83898359C080911C
:1008E0002001833229F481E090E09A83898350C00B
:1008F00080912001882329F484E090E09A83898301
:1009000047C01A82198244C080912001853329F49E
:1009100086E090E09A8389833BC0809120018332F6
:1009200029F481E090E09A83898332C0809120018C
:10093000882329F485E090E09A83898329C01A826C
:10094000198226C080912001833229F481E090E051
:100950009A8389831DC080912001882329F487E030
:1009600090E09A83898314C01A82198211C0809101
:100970004701803861F480911F01813041F41A826F
:10098000198205C01A82198203C0000001C000004C
:1009900089819A81092E000CAA0BBB0B40E050E024
:1009A00027E030E0841B950B28173907D0F1825BD4
:1009B0009F4FFC010C94F30710921F0185E290E019
:1009C000FC0110822FC010921F0185E290E020E808
:1009D000FC01208327C085E290E020ECFC0120830D
:1009E00021C085E290E020EEFC0120831BC085E25F
:1009F00090E020EFFC01208315C085E290E028EF15
:100A0000FC0120830FC085E290E02CEFFC012083E5
:100A100009C081E080931F0185E290E02EEFFC0188
:100A20002083000089819A810F900F90DF91CF91F0
:100A30000895CF93DF9300D0CDB7DEB79A83898333
:100A400089819A818230910539F1833091052CF4A6
:100A5000009749F00197A1F041C08330910539F129
:100A6000049789F13BC0809146018038D1F580918F
:100A70001F018823B1F581E090E09A83898331C01A
:100A800080911201882329F082E090E09A83898383
:100A900029C01A82198226C080911201882329F068
:100AA00083E090E09A83898302C01A821982809140
:100AB0001201882329F084E090E09A83898312C090
:100AC0001A8219820FC080911201882329F081E0D7
:100AD00090E09A83898302C01A8219821A8219824D
:100AE00001C0000089819A818230910519F183301B
:100AF00091052CF4009749F0019781F03FC08330B5
:100B0000910521F1049771F139C060E070E0CB01EB
:100B10000E9406038FE08093120130C060E070E80D
:100B200087E395E40E94060380911201815080932F
:100B3000120124C060E070E085E795E40E9406039E
:100B40008091120181508093120118C060E070E81A
:100B500089E895E40E9406038091120181508093F8
:100B600012010CC060E070EC8FE095E40E94060377
:100B700080911201815080931201000089819A8135
:100B80000F900F90DF91CF9108952F923F92CF93C6
:100B9000DF93CDB7DEB72E970FB6F894DEBF0FBE4A
:100BA000CDBF6D837E838F83988729873A874B8754
:100BB0005C873E862D868D819E81AF81B885298593
:100BC0003A854B855C85BC01CD010E94D107DC01D3
:100BD000CB0189839A83AB83BC8389819A81AB8162
:100BE000BC81892B8A2B8B2B29F489859A85AB852F
:100BF000BC8511C089859A85AB85BC858D839E8314
:100C0000AF83B88789819A81AB81BC8189879A87B4
:100C1000AB87BC87D0CFBC01CD012E960FB6F89420
:100C2000DEBF0FBECDBFDF91CF913F902F900895D3
:100C30002F923F920F931F93CF93DF93CDB7DEB7E1
:100C40002F970FB6F894DEBF0FBECDBF81E290E0C4
:100C5000FC01108282E290E02FEFFC01208384E20D
:100C600090E02FEFFC01208385E290E0FC011082F0
:100C700087E290E020EFFC01208388E290E02FE003
:100C8000FC012083109247011092460186E0E3E1C7
:100C9000F1E0DE011A9601900D928A95E1F783E06A
:100CA00090E098878F838FEF8987898580932501CE
:100CB00082E390E0A0E0B0E08093260190932701CA
:100CC000A0932801B09329018091260190912701DA
:100CD000A0912801B091290180932A0190932B01C2
:100CE000A0932C01B0932D018DEC93E090932F01F4
:100CF00080932E0189858093300182E390E0A0E00B
:100D0000B0E08093310190933201A0933301B0930E
:100D100034018091310190913201A0913301B09161
:100D200034018093350190933601A0933701B0933D
:100D300038018FEE93E090933A01809339018985D1
:100D400080933B0188EC90E0A0E0B0E080933C0110
:100D500090933D01A0933E01B0933F0180913101FA
:100D600090913201A0913301B09134018093400100
:100D700090934101A0934201B093430189E195E032
:100D800090934501809344018A859B85FC01818174
:100D90009281A381B4818B839C83AD83BE8381E0E8
:100DA00090E09A83898329C089819A81880F991F4D
:100DB0009E012F5F3F4F820F931F0996FC01808198
:100DC0009181FC0121813281438154818B819C81FD
:100DD000AD81BE81BE01665F7F4F1B01BC01CD01AD
:100DE0000E94C505DC01CB018B839C83AD83BE8350
:100DF00089819A8101969A83898329813A818F8199
:100E000098852817390780F28B819C81AD81BE813E
:100E1000BC01CD010E9428020E9456020E94A60336
:100E200080E290E0FC01808180958093470180E220
:100E300090E0FC0180818095809346011A8219829E
:100E4000A0C089819A81880F991F9E012F5F3F4F13
:100E5000820F931F0996FC0180819181FC012581FD
:100E600036814781508589819A81880F991FBE01FB
:100E70006F5F7F4F860F971F0996FC0180819181DC
:100E8000FC0181819281A381B481281739074A0727
:100E90005B0709F045C089819A81880F991F9E01DF
:100EA0002F5F3F4F820F931F0996FC010081118134
:100EB00089819A81880F991F9E012F5F3F4F820F72
:100EC000931F0996FC0180819181FC012185328567
:100ED00089819A81880F991FAE014F5F5F4F840F00
:100EE000951F0996FC0180819181FC018081082E6B
:100EF000000C990BF9010995F801808389819A8189
:100F0000880F991F9E012F5F3F4F820F931F0996F5
:100F1000FC0180819181FC01158216821782108666
:100F200089819A81880F991F9E012F5F3F4F820F01
:100F3000931F0996FC016081718189819A81880FD4
:100F4000991F9E012F5F3F4F820F931F0996FC014F
:100F500080819181FC0125813681478150858B817B
:100F60009C81AD81BE81820F931FA41FB51FFB0121
:100F700085839683A783B08789819A8101969A8316
:100F8000898329813A818F8198852817390708F448
:100F900058CF000080911A018823E1F310921A01C2
:100FA0003FCFA1E21A2EAA1BBB1BFD010DC0AA1F39
:100FB000BB1FEE1FFF1FA217B307E407F50720F0C2
:100FC000A21BB30BE40BF50B661F771F881F991F3D
:100FD0001A9469F760957095809590959B01AC0186
:100FE000BD01CF010895EE0FFF1F0024001C0BBEB2
:100FF0000790F691E02D09940E94A90808F481E079
:1010000008950E9415080C94E4080E94DD0858F029
:101010000E94D60840F029F45F3F29F00C94CD08D7
:1010200051110C9418090C94D3080E94F50868F328
:101030009923B1F3552391F3951B550BBB27AA2791
:1010400062177307840738F09F5F5F4F220F331FCB
:10105000441FAA1FA9F335D00E2E3AF0E0E832D093
:1010600091505040E695001CCAF72BD0FE2F29D096
:10107000660F771F881FBB1F261737074807AB0768
:10108000B0E809F0BB0B802DBF01FF2793585F4FDD
:101090003AF09E3F510578F00C94CD080C94180955
:1010A0005F3FE4F3983ED4F3869577956795B795BF
:1010B000F7959F5FC9F7880F911D9695879597F9CA
:1010C0000895E1E0660F771F881FBB1F6217730743
:1010D0008407BA0720F0621B730B840BBA0BEE1F58
:1010E00088F7E09508950E947A086894B1110C94ED
:1010F000180908950E94FD0888F09F5798F0B92FAD
:101100009927B751B0F0E1F0660F771F881F991F3C
:101110001AF0BA95C9F714C0B13091F00E941709BE
:10112000B1E008950C941709672F782F8827B85FCE
:1011300039F0B93FCCF3869577956795B395D9F794
:101140003EF490958095709561957F4F8F4F9F4F9E
:101150000895990F0008550FAA0BE0E8FEEF161648
:101160001706E807F907C0F012161306E407F5079B
:1011700098F0621B730B840B950B39F40A2661F00F
:10118000232B242B252B21F408950A2609F4A140B2
:10119000A6958FEF811D811D089597F99F6780E8BF
:1011A00070E060E008959FEF80EC089500240A94B9
:1011B0001616170618060906089500240A94121632
:1011C0001306140605060895092E0394000C11F465
:1011D000882352F0BB0F40F4BF2B11F460FF04C012
:1011E0006F5F7F4F8F4F9F4F089557FD9058440F6B
:1011F000551F59F05F3F71F04795880F97FB991F76
:1012000061F09F3F79F08795089512161306140632
:10121000551FF2CF4695F1DF08C0161617061806BF
:10122000991FF1CF86957105610508940895E8949A
:10123000BB2766277727CB0197F908950E94A90855
:1012400008F48FEF08950E9436090C94E4080E9478
:10125000D60838F00E94DD0820F0952311F00C9498
:10126000CD080C94D30811240C9418090E94F50899
:1012700070F3959FC1F3950F50E0551F629FF001E9
:10128000729FBB27F00DB11D639FAA27F00DB11D02
:10129000AA1F649F6627B00DA11D661F829F22278B
:1012A000B00DA11D621F739FB00DA11D621F839F12
:1012B000A00D611D221F749F3327A00D611D231FE8
:1012C000849F600D211D822F762F6A2F11249F5736
:1012D00050409AF0F1F088234AF0EE0FFF1FBB1F39
:1012E000661F771F881F91505040A9F79E3F5105F8
:1012F00080F00C94CD080C9418095F3FE4F3983EFD
:10130000D4F3869577956795B795F795E7959F5FA1
:10131000C1F7FE2B880F911D9695879597F9089533
:04132000F894FFCF6F
:10132400000000020000000077000000000001003F
:0A13340000000F250130013B01000D
:00000001FF
